:100000000C942A000C9434000C9434000C943400AA
:100010000C9434000C9434000C9434000C94340090
:100020000C9434000C9434000C9434000C94340080
:100030000C9434000C9434000C9434000C94340070
:100040000C9434000C9434000C9434000C94340060
:100050000C94340011241FBECFE5D8E0DEBFCDBF25
:100060000E94DD020C94E0020C94000084309105A3
:1000700000F568307105E8F44130510501F1452B78
:10008000D9F48230910509F450C08330910509F408
:100090003FC08130910589F12AB381E090E001C031
:1000A000880F6A95EAF7809582238ABB80E090E00A
:1000B000089581E090E0089580E090E00895823016
:1000C000910509F449C083309105E1F18130910532
:1000D00051F08AB301C0440F6A95EAF7482B4ABB36
:1000E00080E090E0089527B301C0880F6A95EAF791
:1000F000822B87BB80E090E0089527B301C0880F72
:100100006A95EAF78095822387BB80E090E00895A6
:1001100021B381E090E001C0880F6A95EAF78095ED
:10012000822381BB80E090E0089524B381E090E0D9
:1001300001C0880F6A95EAF78095822384BB80E02E
:1001400090E0089581B301C0440F6A95EAF7482B07
:1001500041BB80E090E0089584B301C0440F6A95EC
:10016000EAF7482B44BB80E090E008958430910585
:1001700000F568307105E8F44130510501F1452B77
:10018000D9F48230910509F450C08330910509F407
:100190003FC08130910589F12BB381E090E001C02F
:1001A000880F6A95EAF7809582238BBB80E090E008
:1001B000089581E090E0089580E090E00895823015
:1001C000910509F449C083309105E1F18130910531
:1001D00051F08BB301C0440F6A95EAF7482B4BBB33
:1001E00080E090E0089528B301C0880F6A95EAF78F
:1001F000822B88BB80E090E0089528B301C0880F6F
:100200006A95EAF78095822388BB80E090E00895A4
:1002100022B381E090E001C0880F6A95EAF78095EB
:10022000822382BB80E090E0089525B381E090E0D6
:1002300001C0880F6A95EAF78095822385BB80E02C
:1002400090E0089582B301C0440F6A95EAF7482B05
:1002500042BB80E090E0089585B301C0440F6A95E9
:10026000EAF7482B45BB80E090E008958430910583
:1002700018F56830710500F58230910511F1833071
:100280009105E9F081309105F1F029B381E090E02A
:10029000062E02C0880F991F0A94E2F730E08223ED
:1002A000932302C0959587956A95E2F7FA019183A9
:1002B000808380E090E0089581E090E0089520B38D
:1002C000E5CF23B3E3CF26B3E3CF8430910560F4C9
:1002D0008230910561F08330910589F0019759F0E2
:1002E0006ABB80E090E0089581E090E0089564BBEF
:1002F00080E090E0089567BB80E090E0089561BBE6
:1003000080E090E008958430910560F4823091059A
:1003100061F08330910589F0019759F06BBB80E063
:1003200090E0089581E090E0089565BB80E090E062
:10033000089568BB80E090E0089562BB80E090E0A3
:1003400008958430910570F48230910571F0833006
:100350009105B9F0019779F089B3FB01808380E0C2
:1003600090E0089581E090E0089583B3FB018083DD
:1003700080E090E0089586B3FB01808380E090E008
:10038000089580B3FB01808380E090E00895FC0134
:100390006281738141E050E0808191810C9436004C
:1003A000FC01248135812130310589F0232B19F09E
:1003B00081E090E00895FC016281738140E050E0AB
:1003C000808191810E94B60080E090E00895628172
:1003D000738141E050E0808191810E94B60080E00D
:1003E00090E00895FC01248135812130310589F0A8
:1003F000232B19F081E090E00895FC016281738164
:1004000041E050E0808191810E94B60080E090E060
:1004100008956281738140E050E0808191810E9463
:10042000B60080E090E00895FC016281738141E0B4
:1004300050E0808191810C943600FC01248135814B
:100440002130310589F0232B19F081E090E00895E7
:10045000FC016281738140E050E0808191810E94C3
:10046000B60080E090E008956281738141E050E041
:10047000808191810E94B60080E090E00895FC01A7
:10048000248135812130310589F0232B19F081E059
:1004900090E00895FC016281738141E050E0808129
:1004A00091810E94B60080E090E00895628173819E
:1004B00040E050E0808191810E94B60080E090E0B1
:1004C0000895CF93DF930097B1F0EC016A817B81AF
:1004D00041E050E0888199810E9436006C817D81E5
:1004E00041E050E0888199810E94360080E090E0F0
:1004F000DF91CF91089581E090E0DF91CF91089551
:10050000CF93DF930097B1F0EC016A817B8141E0EA
:1005100050E0888199810E94B6006C817D8140E025
:1005200050E0888199810E94B60080E090E0DF91E0
:10053000CF91089581E090E0DF91CF910895CF931E
:10054000DF930097B1F0EC016A817B8140E050E0DD
:10055000888199810E94B6006C817D8141E050E0E4
:10056000888199810E94B60080E090E0DF91CF9170
:10057000089581E090E0DF91CF910895CF93DF93CC
:100580000097B1F0EC016A817B8140E050E0888106
:1005900099810E94B6006C817D8140E050E08881A5
:1005A00099810E94B60080E090E0DF91CF9108959C
:1005B00081E090E0DF91CF91089580E090E0089590
:0405C000F894FFCFDD
:00000001FF
