:100000000C9433000C943D000C943D000C943D0086
:100010000C943D000C943D000C943D000C943D006C
:100020000C943D000C943D000C943D000C943D005C
:100030000C943D000C943D000C943D000C943D004C
:100040000C943D000C943D000C943D000C943D003C
:100050000C943D0071129312B512D712F9121B13B2
:100060003D1352125F1311241FBECFE5D8E0DEBF4F
:10007000CDBF0E9404140C9411160C94000084301F
:10008000910500F568307105E8F44130510501F142
:10009000452BD9F48230910509F450C08330910585
:1000A00009F43FC08130910589F12AB381E090E0E5
:1000B00001C0880F6A95EAF7809582238ABB80E0A9
:1000C00090E0089581E090E0089580E090E0089548
:1000D0008230910509F449C083309105E1F1813006
:1000E000910551F08AB301C0440F6A95EAF7482B95
:1000F0004ABB80E090E0089527B301C0880F6A955D
:10010000EAF7822B87BB80E090E0089527B301C017
:10011000880F6A95EAF78095822387BB80E090E09C
:10012000089521B381E090E001C0880F6A95EAF755
:100130008095822381BB80E090E0089524B381E024
:1001400090E001C0880F6A95EAF78095822384BB0E
:1001500080E090E0089581B301C0440F6A95EAF70A
:10016000482B41BB80E090E0089584B301C0440F68
:100170006A95EAF7482B44BB80E090E0089584300C
:10018000910500F568307105E8F44130510501F141
:10019000452BD9F48230910509F450C08330910584
:1001A00009F43FC08130910589F12BB381E090E0E3
:1001B00001C0880F6A95EAF7809582238BBB80E0A7
:1001C00090E0089581E090E0089580E090E0089547
:1001D0008230910509F449C083309105E1F1813005
:1001E000910551F08BB301C0440F6A95EAF7482B93
:1001F0004BBB80E090E0089528B301C0880F6A955A
:10020000EAF7822B88BB80E090E0089528B301C014
:10021000880F6A95EAF78095822388BB80E090E09A
:10022000089522B381E090E001C0880F6A95EAF753
:100230008095822382BB80E090E0089525B381E021
:1002400090E001C0880F6A95EAF78095822385BB0C
:1002500080E090E0089582B301C0440F6A95EAF708
:10026000482B42BB80E090E0089585B301C0440F65
:100270006A95EAF7482B45BB80E090E0089584300A
:10028000910518F56830710500F58230910511F17E
:1002900083309105E9F081309105F1F029B381E0D7
:1002A00090E0062E02C0880F991F0A94E2F730E012
:1002B0008223932302C0959587956A95E2F7FA0108
:1002C0009183808380E090E0089581E090E008953C
:1002D00020B3E5CF23B3E3CF26B3E3CF843091053A
:1002E00060F48230910561F08330910589F00197C7
:1002F00059F06ABB80E090E0089581E090E00895B5
:1003000064BB80E090E0089567BB80E090E00895D2
:1003100061BB80E090E008958430910560F4823004
:10032000910561F08330910589F0019759F06BBB1D
:1003300080E090E0089581E090E0089565BB80E062
:1003400090E0089568BB80E090E0089562BB80E093
:1003500090E008958430910570F48230910571F039
:1003600083309105B9F0019779F089B3FB0180835F
:1003700080E090E0089581E090E0089583B3FB0170
:10038000808380E090E0089586B3FB01808380E065
:1003900090E0089580B3FB01808380E090E00895B1
:1003A0006F708130910521F1D0F08230910559F0C4
:1003B000039791F482B3807F82BB82B3682B62BBC8
:1003C00080E090E0089585B3807F85BB85B3682B7E
:1003D00065BB80E090E0089581E090E008958BB3E4
:1003E000807F8BBB8BB3682B6BBB80E090E0089564
:1003F00088B3807F88BB88B3682B68BB80E090E0BF
:100400000895607F8130910521F1D0F0823091050F
:1004100059F0039791F482B38F7082BB82B3682B3B
:1004200062BB80E090E0089585B38F7085BB85B393
:10043000682B65BB80E090E0089581E090E008952E
:100440008BB38F708BBB8BB3682B6BBB80E090E062
:10045000089588B38F7088BB88B3682B68BB80E031
:1004600090E008956F708130910521F1D0F08230D5
:10047000910559F0039791F481B3807F81BB81B3DB
:10048000682B61BB80E090E0089584B3807F84BBDB
:1004900084B3682B64BB80E090E0089581E090E035
:1004A00008958AB3807F8ABB8AB3682B6ABB80E0D9
:1004B00090E0089587B3807F87BB87B3682B67BBC5
:1004C00080E090E00895607F8130910521F1D0F0C7
:1004D0008230910559F0039791F481B38F7081BBFD
:1004E00081B3682B61BB80E090E0089584B38F7086
:1004F00084BB84B3682B64BB80E090E0089581E006
:1005000090E008958AB38F708ABB8AB3682B6ABB68
:1005100080E090E0089587B38F7087BB87B3682B26
:1005200067BB80E090E00895FC016281738141E047
:1005300050E0808191810C943F00FC012481358141
:100540002130310589F0232B19F081E090E00895E6
:10055000FC016281738140E050E0808191810E94C2
:10056000BF0080E090E008956281738141E050E037
:10057000808191810E94BF0080E090E00895FC019D
:10058000248135812130310589F0232B19F081E058
:1005900090E00895FC016281738141E050E0808128
:1005A00091810E94BF0080E090E008956281738194
:1005B00040E050E0808191810E94BF0080E090E0A7
:1005C0000895FC016281738141E050E08081918156
:1005D0000C943F00FC01248135812130310589F0E4
:1005E000232B19F081E090E00895FC016281738172
:1005F00040E050E0808191810E94BF0080E090E067
:1006000008956281738141E050E0808191810E9470
:10061000BF0080E090E00895FC0124813581213005
:10062000310589F0232B19F081E090E00895FC0159
:100630006281738141E050E0808191810E94BF001E
:1006400080E090E008956281738140E050E0808115
:1006500091810E94BF0080E090E008951F93CF93A6
:10066000DF93009709F46EC0162FEC016D817E8137
:1006700041E050E08B819C810E94BF006F817885B2
:1006800040E050E08B819C810E94BF0088818830CF
:1006900009F45EC0843031F080E090E0DF91CF91CA
:1006A0001F9108958B858F3009F458C08111F4CFC4
:1006B000612F62956F7089819A810E94D00169854E
:1006C0007A8541E050E08B819C810E94BF008FECD5
:1006D00097E00197F1F700C0000069857A8540E056
:1006E00050E08B819C810E94BF008FEC97E00197C6
:1006F000F1F700C00000612F89819A810E94D0012A
:1007000069857A8541E050E08B819C810E94BF0021
:100710008FEC97E00197F1F700C0000069857A85BA
:1007200040E050E08B819C810E94BF008FEC97E0FD
:100730000197F1F700C0000080E090E0DF91CF91D9
:100740001F91089581E090E0DF91CF911F9108956E
:10075000612F89819A810E948C01D2CF612F89817A
:100760009A810E94010269857A8541E050E08B817F
:100770009C810E94BF008FEC97E00197F1F700C0C9
:10078000000069857A8540E050E08B819C810E9461
:10079000BF008FEC97E00197F1F700C00000612FD8
:1007A0006295607F89819A810E940102A9CF1F937F
:1007B000CF93DF93009709F46EC0162FEC016D8183
:1007C0007E8140E050E08B819C810E94BF006F8160
:1007D000788540E050E08B819C810E94BF00888139
:1007E000883009F45EC0843031F080E090E0DF9121
:1007F000CF911F9108958B858F3009F458C08111D6
:10080000F4CF612F62956F7089819A810E94D00127
:1008100069857A8541E050E08B819C810E94BF0010
:100820008FEC97E00197F1F700C0000069857A85A9
:1008300040E050E08B819C810E94BF008FEC97E0EC
:100840000197F1F700C00000612F89819A810E9411
:10085000D00169857A8541E050E08B819C810E94BE
:10086000BF008FEC97E00197F1F700C000006985A9
:100870007A8540E050E08B819C810E94BF008FEC24
:1008800097E00197F1F700C0000080E090E0DF9171
:10089000CF911F91089581E090E0DF91CF911F915A
:1008A0000895612F89819A810E948C01D2CF612F96
:1008B00089819A810E94010269857A8541E050E030
:1008C0008B819C810E94BF008FEC97E00197F1F72C
:1008D00000C0000069857A8540E050E08B819C81F2
:1008E0000E94BF008FEC97E00197F1F700C0000075
:1008F000612F6295607F89819A810E940102A9CF50
:10090000CF93DF93009709F465C0EC016D817E8180
:1009100041E050E08B819C810E943F006F8178858F
:1009200041E050E08B819C810E943F0069857A857F
:1009300041E050E08B819C810E943F00888188309B
:1009400009F453C0843029F080E090E0DF91CF912A
:1009500008958B858F3009F481C0882309F43FC046
:1009600062E0CE010E94D7039FE728E381E0915027
:1009700020408040E1F700C0000068E2CE010E9404
:10098000D7038FEC97E00197F1F700C000006CE00F
:10099000CE010E94D7038FEC97E00197F1F700C0DA
:1009A000000061E0CE010E94D7038FE097E201973B
:1009B000F1F700C0000066E0CE010E94D7038FE08F
:1009C00097E20197F1F700C0000080E090E0DF912E
:1009D000CF91089581E090E0DF91CF9108956FEF7E
:1009E00089819A810E943202BBCF6FEF89819A81FF
:1009F0000E946E012FE788E391E0215080409040F3
:100A0000E1F700C0000068E3CE010E94D7038FEC3D
:100A100097E00197F1F700C000006CE0CE010E9462
:100A2000D7038FEC97E00197F1F700C0000061E079
:100A3000CE010E94D7038FE097E20197F1F700C043
:100A4000000066E0CE010E94D7038FEC97E001978B
:100A5000F1F700C0000080E090E078CF6FEF89816F
:100A60009A810E9463027CCFCF93DF93009709F4B1
:100A70006BC0EC016D817E8140E050E08B819C81F8
:100A80000E94BF006F81788540E050E08B819C819F
:100A90000E94BF008881883009F45BC0843059F01F
:100AA0008FEC97E00197F1F700C0000080E090E044
:100AB000DF91CF9108958B858F3009F450C081115B
:100AC000EFCF60E089819A810E94D00169857A85A3
:100AD00041E050E08B819C810E94BF008FEC97E049
:100AE0000197F1F700C0000069857A8540E050E089
:100AF0008B819C810E94BF008FEC97E00197F1F7FA
:100B000000C0000061E089819A810E94D00169855E
:100B10007A8541E050E08B819C810E94BF008FEC80
:100B200097E00197F1F700C0000069857A8540E001
:100B300050E08B819C810E94BF008FEC97E0019771
:100B4000F1F700C00000ACCF81E090E0DF91CF91E1
:100B5000089561E089819A810E948C01D8CF61E07B
:100B600089819A810E94010269857A8541E050E07D
:100B70008B819C810E94BF008FEC97E00197F1F779
:100B800000C0000069857A8540E050E08B819C813F
:100B90000E94BF008FEC97E00197F1F700C00000C2
:100BA00060E189819A810E940102B1CF1F93CF93A6
:100BB000DF93009709F46EC0162FEC016D817E81E2
:100BC00041E050E08B819C810E94BF006F8178855D
:100BD00040E050E08B819C810E94BF00888188307A
:100BE00009F45EC0843031F080E090E0DF91CF9175
:100BF0001F9108958B858F3009F458C08111F4CF6F
:100C0000612F62956F7089819A810E94D0016985F8
:100C10007A8541E050E08B819C810E94BF008FEC7F
:100C200097E00197F1F700C0000069857A8540E000
:100C300050E08B819C810E94BF008FEC97E0019770
:100C4000F1F700C00000612F89819A810E94D001D4
:100C500069857A8541E050E08B819C810E94BF00CC
:100C60008FEC97E00197F1F700C0000069857A8565
:100C700040E050E08B819C810E94BF008FEC97E0A8
:100C80000197F1F700C0000080E090E0DF91CF9184
:100C90001F91089581E090E0DF91CF911F91089519
:100CA000612F89819A810E948C01D2CF612F898125
:100CB0009A810E94010269857A8541E050E08B812A
:100CC0009C810E94BF008FEC97E00197F1F700C074
:100CD000000069857A8540E050E08B819C810E940C
:100CE000BF008FEC97E00197F1F700C00000612F83
:100CF0006295607F89819A810E940102A9CFEF925B
:100D0000FF920F931F93CF93DF93009709F4A9C02D
:100D10007B01EC0110E0F701E10FF11D00810023E0
:100D200009F467C01F5F6D817E8141E050E08B81D7
:100D30009C810E94BF006F81788540E050E08B81EC
:100D40009C810E94BF008881883009F45BC0843098
:100D500011F78B858F3009F45BC08111DCCF602FD8
:100D600062956F7089819A810E94D00169857A8528
:100D700041E050E08B819C810E94BF008FEC97E0A6
:100D80000197F1F700C0000069857A8540E050E0E6
:100D90008B819C810E94BF008FEC97E00197F1F757
:100DA00000C00000602F89819A810E94D00169856E
:100DB0007A8541E050E08B819C810E94BF008FECDE
:100DC00097E00197F1F700C0000069857A8540E05F
:100DD00050E08B819C810E94BF008FEC97E00197CF
:100DE000F1F700C00000F701E10FF11D00810111D2
:100DF00099CF80E090E0DF91CF911F910F91FF900C
:100E0000EF900895602F89819A810E948C01CFCF45
:100E1000602F89819A810E94010269857A8541E06B
:100E200050E08B819C810E94BF008FEC97E001977E
:100E3000F1F700C0000069857A8540E050E08B81C1
:100E40009C810E94BF008FEC97E00197F1F700C0F2
:100E50000000602F6295607F89819A810E94010263
:100E6000A6CF81E090E0DF91CF911F910F91FF908D
:100E7000EF9008951F93CF93DF93009709F47EC0FE
:100E80002FEF260F223008F46FC010E8EC016D81BF
:100E90007E8140E050E08B819C810E94BF006F8189
:100EA000788540E050E08B819C810E94BF00888162
:100EB000883009F469C0843061F08FEC97E00197C5
:100EC000F1F700C0000080E090E0DF91CF911F912A
:100ED00008958B858F3009F460C08111EECF612FAA
:100EE00062956F7089819A810E94D00169857A85A7
:100EF00041E050E08B819C810E94BF008FEC97E025
:100F00000197F1F700C0000069857A8540E050E064
:100F10008B819C810E94BF008FEC97E00197F1F7D5
:100F200000C00000612F89819A810E94D0016985EB
:100F30007A8541E050E08B819C810E94BF008FEC5C
:100F400097E00197F1F700C0000069857A8540E0DD
:100F500050E08B819C810E94BF008FEC97E001974D
:100F6000F1F700C00000A9CF2FEF240F203108F0C7
:100F70008CCF613079F01FEB140F88CF81E090E0C7
:100F8000DF91CF911F910895612F89819A810E94ED
:100F90008C01CDCF1FE7140F79CF612F89819A8102
:100FA0000E94010269857A8541E050E08B819C8135
:100FB0000E94BF008FEC97E00197F1F700C000009E
:100FC00069857A8540E050E08B819C810E94BF005A
:100FD0008FEC97E00197F1F700C00000612F629558
:100FE000607F89819A810E940102A1CFBF92CF9236
:100FF000DF92EF92FF920F931F93CF93DF9300D076
:1010000000D01F92CDB7DEB77C01CB01E114F10413
:1010100009F4F8C09E012F5F3F4F690125E0F601FA
:1010200011922A95E9F7009709F4CFC077FFE8C03D
:10103000919581959109BB24B39400E02AE030E0BA
:1010400001C0042F41E0400F10E0F601E00FF11F56
:10105000B9010E944C14805D8083CB01009789F711
:10106000242F269591F1842F90E03981FC0131974E
:10107000EC0DFD1D508159833083213031F13A81CF
:10108000FC013297EC0DFD1D50815A8330832230D4
:10109000E1F03B81FC013397EC0DFD1D50815B833A
:1010A0003083233091F03C81FC013497EC0DFD1D21
:1010B00050815C833083243041F02D810597F60107
:1010C000E80FF91F80818D832083442309F481C0B8
:1010D000BB2021F06DE2C7010E942E030F5F1F4F5E
:1010E0000C0D1D1D04C0C016D10609F472C0F60116
:1010F000B1906F01F7016581768141E050E0838115
:1011000094810E94BF00F7016781708540E050E044
:10111000838194810E94BF00F7018081883009F4A7
:1011200069C0843001F7F70183858F3009F46DC001
:101130008111D9CF6B2D62956F70F70181819281FA
:101140000E94D001F7016185728541E050E0838102
:1011500094810E94BF008FEC97E00197F1F700C0E7
:101160000000F7016185728540E050E08381948141
:101170000E94BF008FEC97E00197F1F700C00000DC
:101180006B2DF701818192810E94D001F701618569
:10119000728541E050E0838194810E94BF008FEC12
:1011A00097E00197F1F700C00000F70161857285B3
:1011B00040E050E0838194810E94BF008FEC97E073
:1011C0000197F1F700C000008ECF60E3C7010E94D5
:1011D0002E0380E090E00F900F900F900F900F90F3
:1011E000DF91CF911F910F91FF90EF90DF90CF9003
:1011F000BF9008956B2D818192810E948C01C6CF92
:10120000B12C1BCF81E090E0E6CF6B2D81819281E4
:101210000E940102F7016185728541E050E08381FF
:1012200094810E94BF008FEC97E00197F1F700C016
:101230000000F7016185728540E050E08381948170
:101240000E94BF008FEC97E00197F1F700C000000B
:101250006B2D6295607FF701818192810E9401026E
:1012600095CF8F929F92AF92BF92CF92DF92EF92E3
:10127000FF92CF93DF93009709F448C06A017B0186
:10128000EC01CB01BA010E94E7140E9416159B01E4
:10129000AC01C701B6010E947A1420E030E04AE7B1
:1012A00054E40E94A4154B015C01C701B6010E94E1
:1012B000E714CE010E94F6076D817E8141E050E087
:1012C0008B819C810E94BF006F81788540E050E057
:1012D0008B819C810E94BF008881883009F462C0A4
:1012E0008430B9F0C501B4010E94E714CE010E9418
:1012F000F60780E090E0DF91CF91FF90EF90DF90D4
:10130000CF90BF90AF909F908F90089581E090E034
:10131000F2CF8B858F3009F44BC08111E3CF62E0AF
:1013200089819A810E94D00169857A8541E050E0E7
:101330008B819C810E94BF008FEC97E00197F1F7B1
:1013400000C0000069857A8540E050E08B819C8177
:101350000E94BF008FEC97E00197F1F700C00000FA
:101360006EE289819A810E94D00169857A8541E087
:1013700050E08B819C810E94BF008FEC97E0019729
:10138000F1F700C0000069857A8540E050E08B816C
:101390009C810E94BF008FEC97E00197F1F700C09D
:1013A0000000A0CF6EE289819A810E948C01DDCF7E
:1013B0006EE289819A810E94010269857A8541E005
:1013C00050E08B819C810E94BF008FEC97E00197D9
:1013D000F1F700C0000069857A8540E050E08B811C
:1013E0009C810E94BF008FEC97E00197F1F700C04D
:1013F000000060EE89819A810E940102B6CFDF92DF
:10140000EF92FF920F931F93CF93DF93009709F40E
:101410008DC07B01EC01642F660F660F660F605C68
:101420000E94D703870188E0E80EF11C04C00E1566
:101430001F0509F467C0F801D1908F016D817E818D
:1014400041E050E08B819C810E94BF006F817885D4
:1014500040E050E08B819C810E94BF0088818830F1
:1014600009F45EC0843019F78B858F3009F468C0A9
:101470008111DDCF6D2D62956F7089819A810E94F7
:10148000D00169857A8541E050E08B819C810E9482
:10149000BF008FEC97E00197F1F700C0000069856D
:1014A0007A8540E050E08B819C810E94BF00EFEC88
:1014B000F7E03197F1F700C000006D2D89819A8126
:1014C0000E94D00169857A8541E050E08B819C8142
:1014D0000E94BF008FEC97E00197F1F700C0000079
:1014E00069857A8540E050E08B819C810E94BF0035
:1014F000EFECF7E03197F1F700C000000E151F0583
:1015000009F099CF60E8CE010E94D70380E090E017
:10151000DF91CF911F910F91FF90EF90DF90089591
:101520006D2D89819A810E948C01CCCF81E090E061
:10153000DF91CF911F910F91FF90EF90DF90089571
:101540006D2D89819A810E94010269857A8541E029
:1015500050E08B819C810E94BF008FEC97E0019747
:10156000F1F700C0000069857A8540E050E08B818A
:101570009C810E94BF00EFECF7E03197F1F700C0CB
:1015800000006D2D6295607F89819A810E94010221
:1015900099CF0F931F93CF93DF93009709F493C0D4
:1015A0003FEF340F323008F4E0C000E8162FEC01B2
:1015B0006D817E8140E050E08B819C810E94BF0064
:1015C0006F81788540E050E08B819C810E94BF0054
:1015D0008881883009F4DAC0843009F47BC08FEC4C
:1015E00097E00197F1F700C000006D817E8141E036
:1015F00050E08B819C810E94BF006F81788540E024
:1016000050E08B819C810E94BF008881883009F462
:10161000B7C0843039F080E090E0DF91CF911F9126
:101620000F9108958B858F3009F4B6C08111F3CFE7
:10163000612F62956F7089819A810E94D0016985BE
:101640007A8541E050E08B819C810E94BF008FEC45
:1016500097E00197F1F700C0000069857A8540E0C6
:1016600050E08B819C810E94BF008FEC97E0019736
:10167000F1F700C00000612F89819A810E94D0019A
:1016800069857A8541E050E08B819C810E94BF0092
:101690008FEC97E00197F1F700C0000069857A852B
:1016A00040E050E08B819C810E94BF008FEC97E06E
:1016B0000197F1F700C0000080E090E0DF91CF914A
:1016C0001F910F91089581E090E0DF91CF911F91DC
:1016D0000F9108958B858F3009F487C081117FCFDA
:1016E000602F62956F7089819A810E94D00169850F
:1016F0007A8541E050E08B819C810E94BF008FEC95
:1017000097E00197F1F700C0000069857A8540E015
:1017100050E08B819C810E94BF008FEC97E0019785
:10172000F1F700C00000602F89819A810E94D001EA
:1017300069857A8541E050E08B819C810E94BF00E1
:101740008FEC97E00197F1F700C0000069857A857A
:1017500040E050E08B819C810E94BF008FEC97E0BD
:101760000197F1F700C000003ACF3FEF320F303160
:1017700008F01BCF413009F461C00FEB020F16CF08
:10178000612F89819A810E948C017ACF602F898193
:101790009A810E948C01CCCF612F89819A810E940D
:1017A000010269857A8541E050E08B819C810E942D
:1017B000BF008FEC97E00197F1F700C0000069854A
:1017C0007A8540E050E08B819C810E94BF008FECC5
:1017D00097E00197F1F700C00000612F6295607FEC
:1017E00089819A810E9401024BCF602F89819A8161
:1017F0000E94010269857A8541E050E08B819C81DD
:101800000E94BF008FEC97E00197F1F700C0000045
:1018100069857A8540E050E08B819C810E94BF0001
:101820008FEC97E00197F1F700C00000602F629500
:10183000607F89819A810E9401027ACF0FE7020FAF
:10184000B5CECF93DF93009709F469C0EC016D81A9
:101850007E8140E050E08B819C810E94BF006F81BF
:10186000788540E050E08B819C810E94BF00888198
:10187000883009F459C0843029F080E090E0DF918D
:10188000CF9108958B858F3009F454C08111F5CF25
:1018900060E089819A810E94D00169857A8541E062
:1018A00050E08B819C810E94BF008FEC97E00197F4
:1018B000F1F700C0000069857A8540E050E08B8137
:1018C0009C810E94BF008FEC97E00197F1F700C068
:1018D00000006EE089819A810E94D00169857A8535
:1018E00041E050E08B819C810E94BF008FEC97E02B
:1018F0000197F1F700C0000069857A8540E050E06B
:101900008B819C810E94BF008FEC97E00197F1F7DB
:1019100000C0000080E090E0DF91CF91089581E069
:1019200090E0DF91CF9108956EE089819A810E94C5
:101930008C01D4CF6EE089819A810E940102698571
:101940007A8541E050E08B819C810E94BF008FEC42
:1019500097E00197F1F700C0000069857A8540E0C3
:1019600050E08B819C810E94BF008FEC97E0019733
:10197000F1F700C0000060EE89819A810E940102A7
:10198000ADCFCF93DF93009709F469C0EC016D816F
:101990007E8140E050E08B819C810E94BF006F817E
:1019A000788540E050E08B819C810E94BF00888157
:1019B000883009F459C0843029F080E090E0DF914C
:1019C000CF9108958B858F3009F454C08111F5CFE4
:1019D00060E089819A810E94D00169857A8541E021
:1019E00050E08B819C810E94BF008FEC97E00197B3
:1019F000F1F700C0000069857A8540E050E08B81F6
:101A00009C810E94BF008FEC97E00197F1F700C026
:101A100000006CE089819A810E94D00169857A85F5
:101A200041E050E08B819C810E94BF008FEC97E0E9
:101A30000197F1F700C0000069857A8540E050E029
:101A40008B819C810E94BF008FEC97E00197F1F79A
:101A500000C0000080E090E0DF91CF91089581E028
:101A600090E0DF91CF9108956CE089819A810E9486
:101A70008C01D4CF6CE089819A810E940102698532
:101A80007A8541E050E08B819C810E94BF008FEC01
:101A900097E00197F1F700C0000069857A8540E082
:101AA00050E08B819C810E94BF008FEC97E00197F2
:101AB000F1F700C0000060EC89819A810E94010268
:101AC000ADCFCF93DF93009709F469C0EC016D812E
:101AD0007E8140E050E08B819C810E94BF006F813D
:101AE000788540E050E08B819C810E94BF00888116
:101AF000883009F459C0843029F080E090E0DF910B
:101B0000CF9108958B858F3009F454C08111F5CFA2
:101B100061E089819A810E94D00169857A8541E0DE
:101B200050E08B819C810E94BF008FEC97E0019771
:101B3000F1F700C0000069857A8540E050E08B81B4
:101B40009C810E94BF008FEC97E00197F1F700C0E5
:101B500000006CE189819A810E94D00169857A85B3
:101B600041E050E08B819C810E94BF008FEC97E0A8
:101B70000197F1F700C0000069857A8540E050E0E8
:101B80008B819C810E94BF008FEC97E00197F1F759
:101B900000C0000080E090E0DF91CF91089581E0E7
:101BA00090E0DF91CF9108956CE189819A810E9444
:101BB0008C01D4CF6CE189819A810E9401026985F0
:101BC0007A8541E050E08B819C810E94BF008FECC0
:101BD00097E00197F1F700C0000069857A8540E041
:101BE00050E08B819C810E94BF008FEC97E00197B1
:101BF000F1F700C0000060EC89819A810E94010227
:101C0000ADCFCF93DF93009709F469C0EC016D81EC
:101C10007E8140E050E08B819C810E94BF006F81FB
:101C2000788540E050E08B819C810E94BF008881D4
:101C3000883009F459C0843029F080E090E0DF91C9
:101C4000CF9108958B858F3009F454C08111F5CF61
:101C500061E089819A810E94D00169857A8541E09D
:101C600050E08B819C810E94BF008FEC97E0019730
:101C7000F1F700C0000069857A8540E050E08B8173
:101C80009C810E94BF008FEC97E00197F1F700C0A4
:101C9000000068E189819A810E94D00169857A8576
:101CA00041E050E08B819C810E94BF008FEC97E067
:101CB0000197F1F700C0000069857A8540E050E0A7
:101CC0008B819C810E94BF008FEC97E00197F1F718
:101CD00000C0000080E090E0DF91CF91089581E0A6
:101CE00090E0DF91CF91089568E189819A810E9407
:101CF0008C01D4CF68E189819A810E9401026985B3
:101D00007A8541E050E08B819C810E94BF008FEC7E
:101D100097E00197F1F700C0000069857A8540E0FF
:101D200050E08B819C810E94BF008FEC97E001976F
:101D3000F1F700C0000060E889819A810E940102E9
:101D4000ADCFCF93DF93009709F469C0EC016D81AB
:101D50007E8140E050E08B819C810E94BF006F81BA
:101D6000788540E050E08B819C810E94BF00888193
:101D7000883009F459C0843029F080E090E0DF9188
:101D8000CF9108958B858F3009F454C08111F5CF20
:101D900060E089819A810E94D00169857A8541E05D
:101DA00050E08B819C810E94BF008FEC97E00197EF
:101DB000F1F700C0000069857A8540E050E08B8132
:101DC0009C810E94BF008FEC97E00197F1F700C063
:101DD00000006CE089819A810E94D00169857A8532
:101DE00041E050E08B819C810E94BF008FEC97E026
:101DF0000197F1F700C0000069857A8540E050E066
:101E00008B819C810E94BF008FEC97E00197F1F7D6
:101E100000C0000080E090E0DF91CF91089581E064
:101E200090E0DF91CF9108956CE089819A810E94C2
:101E30008C01D4CF6CE089819A810E94010269856E
:101E40007A8541E050E08B819C810E94BF008FEC3D
:101E500097E00197F1F700C0000069857A8540E0BE
:101E600050E08B819C810E94BF008FEC97E001972E
:101E7000F1F700C0000060EC89819A810E940102A4
:101E8000ADCFCF93DF93009709F469C0EC016D816A
:101E90007E8140E050E08B819C810E94BF006F8179
:101EA000788540E050E08B819C810E94BF00888152
:101EB000883009F459C0843029F080E090E0DF9147
:101EC000CF9108958B858F3009F454C08111F5CFDF
:101ED00060E089819A810E94D00169857A8541E01C
:101EE00050E08B819C810E94BF008FEC97E00197AE
:101EF000F1F700C0000069857A8540E050E08B81F1
:101F00009C810E94BF008FEC97E00197F1F700C021
:101F1000000069E089819A810E94D00169857A85F3
:101F200041E050E08B819C810E94BF008FEC97E0E4
:101F30000197F1F700C0000069857A8540E050E024
:101F40008B819C810E94BF008FEC97E00197F1F795
:101F500000C0000080E090E0DF91CF91089581E023
:101F600090E0DF91CF91089569E089819A810E9484
:101F70008C01D4CF69E089819A810E940102698530
:101F80007A8541E050E08B819C810E94BF008FECFC
:101F900097E00197F1F700C0000069857A8540E07D
:101FA00050E08B819C810E94BF008FEC97E00197ED
:101FB000F1F700C0000060E989819A810E94010266
:101FC000ADCFCF93DF93009709F469C0EC016D8129
:101FD0007E8140E050E08B819C810E94BF006F8138
:101FE000788540E050E08B819C810E94BF00888111
:101FF000883009F459C0843029F080E090E0DF9106
:10200000CF9108958B858F3009F454C08111F5CF9D
:1020100060E089819A810E94D00169857A8541E0DA
:1020200050E08B819C810E94BF008FEC97E001976C
:10203000F1F700C0000069857A8540E050E08B81AF
:102040009C810E94BF008FEC97E00197F1F700C0E0
:1020500000006FE089819A810E94D00169857A85AC
:1020600041E050E08B819C810E94BF008FEC97E0A3
:102070000197F1F700C0000069857A8540E050E0E3
:102080008B819C810E94BF008FEC97E00197F1F754
:1020900000C0000080E090E0DF91CF91089581E0E2
:1020A00090E0DF91CF9108956FE089819A810E943D
:1020B0008C01D4CF6FE089819A810E9401026985E9
:1020C0007A8541E050E08B819C810E94BF008FECBB
:1020D00097E00197F1F700C0000069857A8540E03C
:1020E00050E08B819C810E94BF008FEC97E00197AC
:1020F000F1F700C0000060EF89819A810E9401021F
:10210000ADCFCF93DF93009709F469C0EC016D81E7
:102110007E8140E050E08B819C810E94BF006F81F6
:10212000788540E050E08B819C810E94BF008881CF
:10213000883009F459C0843029F080E090E0DF91C4
:10214000CF9108958B858F3009F454C08111F5CF5C
:1021500060E089819A810E94D00169857A8541E099
:1021600050E08B819C810E94BF008FEC97E001972B
:10217000F1F700C0000069857A8540E050E08B816E
:102180009C810E94BF008FEC97E00197F1F700C09F
:1021900000006EE089819A810E94D00169857A856C
:1021A00041E050E08B819C810E94BF008FEC97E062
:1021B0000197F1F700C0000069857A8540E050E0A2
:1021C0008B819C810E94BF008FEC97E00197F1F713
:1021D00000C0000080E090E0DF91CF91089581E0A1
:1021E00090E0DF91CF9108956EE089819A810E94FD
:1021F0008C01D4CF6EE089819A810E9401026985A9
:102200007A8541E050E08B819C810E94BF008FEC79
:1022100097E00197F1F700C0000069857A8540E0FA
:1022200050E08B819C810E94BF008FEC97E001976A
:10223000F1F700C0000060EE89819A810E940102DE
:10224000ADCFCF93DF930097B1F0EC016A817B8132
:1022500041E050E0888199810E943F006C817D813E
:1022600041E050E0888199810E943F0080E090E049
:10227000DF91CF91089581E090E0DF91CF910895B3
:10228000CF93DF930097B1F0EC016A817B8141E04D
:1022900050E0888199810E94BF006C817D8140E07F
:1022A00050E0888199810E94BF0080E090E0DF913A
:1022B000CF91089581E090E0DF91CF910895CF9381
:1022C000DF930097B1F0EC016A817B8140E050E040
:1022D000888199810E94BF006C817D8141E050E03E
:1022E000888199810E94BF0080E090E0DF91CF91CA
:1022F000089581E090E0DF91CF910895CF93DF932F
:102300000097B1F0EC016A817B8140E050E0888168
:1023100099810E94BF006C817D8140E050E08881FE
:1023200099810E94BF0080E090E0DF91CF910895F5
:1023300081E090E0DF91CF910895FC0144815581C7
:1023400062817381808191810C943F00CF93DF93F0
:1023500000D0CDB7DEB71A821982FC012481358105
:102360002230310508F12230310539F080E090E06B
:102370000F900F90DF91CF910895FC0162817381DE
:10238000AE014F5F5F4F808191810E943F0181E0EC
:1023900090E029813A812130310551F380E00F909E
:1023A0000F90DF91CF91089562817381AE014F5FED
:1023B0005F4F808191810E943F0181E090E02981FF
:1023C0003A8121303105A1F6E9CF0F931F93CF93C6
:1023D000DF930097B9F0EC018C01045E1F4F6A8116
:1023E0007B8141E050E0888199810E943F002496E2
:1023F000C017D107A1F780E090E0DF91CF911F9146
:102400000F91089581E090E0DF91CF911F910F919E
:102410000895EF92FF920F931F93CF93DF9300974E
:10242000C1F16A30B0F5EC01862F90E0FC013197E4
:10243000E930F10550F1E12CF12C01E010E0A801A8
:102440000E2C02C0440F551F0A94E2F74F73552714
:102450000E2C02C0559547950A94E2F76A817B815C
:10246000888199810E94BF008FEFE81AF80A2496AC
:1024700087E0E816F10419F780E090E0DF91CF9152
:102480001F910F91FF90EF900895E65DFF4F0C9420
:10249000601481E090E0DF91CF911F910F91FF9048
:1024A000EF90089500E010E0EE24E394F12CA701F2
:1024B000002E02C0440F551F0A94E2F7002E02C0FE
:1024C000559547950A94E2F76A817B8188819981C5
:1024D0000E94BF000F5F1F4F24960730110539F788
:1024E000CBCFE12CF12C01E010E0A8010E2C02C0B2
:1024F000440F551F0A94E2F7467055270E2C02C070
:10250000559547950A94E2F76A817B818881998184
:102510000E94BF008FEFE81AF80A249687E0E816B9
:10252000F10419F7A9CFE12CF12C01E010E0A8018A
:102530000E2C02C0440F551F0A94E2F74B75552725
:102540000E2C02C0559547950A94E2F76A817B816B
:10255000888199810E94BF008FEFE81AF80A2496BB
:1025600087E0E816F10419F787CFE12CF12C01E0A0
:1025700010E0A8010E2C02C0440F551F0A94E2F788
:102580004F7455270E2C02C0559547950A94E2F7D3
:102590006A817B81888199810E94BF008FEFE81A50
:1025A000F80A249687E0E816F10419F765CFE12CC4
:1025B000F12C01E010E0A8010E2C02C0440F551FC1
:1025C0000A94E2F7467655270E2C02C0559547959A
:1025D0000A94E2F76A817B81888199810E94BF0019
:1025E0008FEFE81AF80A249687E0E816F10419F745
:1025F00043CFE12CF12C01E010E0A8010E2C02C029
:10260000440F551F0A94E2F74D7655270E2C02C051
:10261000559547950A94E2F76A817B818881998173
:102620000E94BF008FEFE81AF80A249687E0E816A8
:10263000F10419F721CFE12CF12C01E010E0A80101
:102640000E2C02C0440F551F0A94E2F74D77552710
:102650000E2C02C0559547950A94E2F76A817B815A
:10266000888199810E94BF008FEFE81AF80A2496AA
:1026700087E0E816F10419F7FFCEE12CF12C01E018
:1026800010E0A8010E2C02C0440F551F0A94E2F777
:10269000477055270E2C02C0559547950A94E2F7CE
:1026A0006A817B81888199810E94BF008FEFE81A3F
:1026B000F80A249687E0E816F10419F7DDCEE12C3C
:1026C000F12C01E010E0A8010E2C02C0440F551FB0
:1026D0000A94E2F74F7655270E2C02C05595479580
:1026E0000A94E2F76A817B81888199810E94BF0008
:1026F0008FEFE81AF80A249687E0E816F10419F734
:10270000BBCE0F931F93CF93DF930097B9F0EC01EB
:102710008C01005F1F4F6A817B8141E050E088811E
:1027200099810E943F002496C017D107A1F780E04D
:1027300090E0DF91CF911F910F91089581E090E09B
:10274000DF91CF911F910F910895CF92DF92EF9279
:10275000FF920F931F93CF93DF93009789F16A3015
:1027600078F5EC01062F10E0C12CD12CEE24E39477
:10277000F12CA7010C2C02C0440F551F0A94E2F75C
:10278000402351230C2C02C0559547950A94E2F73B
:102790006A817B81888199810E94BF008FEFC81A6E
:1027A000D80A84E0C816D10421F780E090E0DF91D8
:1027B000CF911F910F91FF90EF90DF90CF900895F0
:1027C00081E090E0F4CF009761F0FC0162817381B9
:1027D00040E050E0808191810E943F0080E090E0E5
:1027E000089581E090E00895009759F0AB01FC0155
:1027F00062817381808191810E943F0180E090E03D
:10280000089581E090E00895CF93DF9300D000D049
:1028100000D0CDB7DEB71A8219821C821B8281E0FC
:1028200090E09E838D83CE0101960E942111CE01FE
:1028300001960E9440112FEF83ED90E321508040DC
:102840009040E1F700C00000CE0101960E947E1189
:102850002FEF84E39CE0215080409040E1F700C0DE
:102860000000CE0101960E945F112FEF83ED90E3EF
:10287000215080409040E1F700C00000CE01019659
:102880000E947E112FEF84E39CE021508040904015
:10289000E1F700C00000CBCF97FB072E16F40094A1
:1028A00007D077FD09D00E94661407FC05D03EF4DE
:1028B000909581959F4F0895709561957F4F0895EC
:1028C000EE0FFF1F0590F491E02D0994AA1BBB1B8E
:1028D00051E107C0AA1FBB1FA617B70710F0A61B20
:1028E000B70B881F991F5A95A9F780959095BC0141
:1028F000CD0108955058BB27AA270E9492140C942A
:102900006A150E945C1538F00E94631520F039F4B6
:102910009F3F19F426F40C9459150EF4E095E7FB4B
:102920000C945315E92F0E947B1558F3BA176207D0
:1029300073078407950720F079F4A6F50C949D158C
:102940000EF4E0950B2EBA2FA02D0B01B9019001CA
:102950000C01CA01A0011124FF27591B99F0593F0E
:1029600050F4503E68F11A16F040A22F232F342F56
:102970004427585FF3CF469537952795A795F040A4
:102980005395C9F77EF41F16BA0B620B730B840BB9
:10299000BAF09150A1F0FF0FBB1F661F771F881F71
:1029A000C2F70EC0BA0F621F731F841F48F48795C9
:1029B00077956795B795F7959E3F08F0B0CF9395BB
:1029C000880F08F09927EE0F9795879508950E9434
:1029D000831588F09F5798F0B92F9927B751B0F019
:1029E000E1F0660F771F881F991F1AF0BA95C9F793
:1029F00014C0B13091F00E949D15B1E008950C947F
:102A00009D15672F782F8827B85F39F0B93FCCF331
:102A1000869577956795B395D9F73EF4909580950F
:102A2000709561957F4F8F4F9F4F0895E89409C02F
:102A300097FB3EF490958095709561957F4F8F4FF1
:102A40009F4F9923A9F0F92F96E9BB279395F69507
:102A5000879577956795B795F111F8CFFAF4BB0F85
:102A600011F460FF1BC06F5F7F4F8F4F9F4F16C0E9
:102A7000882311F096E911C0772321F09EE8872F73
:102A8000762F05C0662371F096E8862F70E060E02F
:102A90002AF09A95660F771F881FDAF7880F9695A8
:102AA000879597F9089597F99F6780E870E060E04F
:102AB00008959FEF80EC089500240A9416161706D7
:102AC00018060906089500240A941216130614061F
:102AD00005060895092E0394000C11F4882352F082
:102AE000BB0F40F4BF2B11F460FF04C06F5F7F4F3A
:102AF0008F4F9F4F089557FD9058440F551F59F021
:102B00005F3F71F04795880F97FB991F61F09F3FDA
:102B100079F087950895121613061406551FF2CF03
:102B20004695F1DF08C0161617061806991FF1CF53
:102B300086957105610508940895E894BB2766277A
:102B40007727CB0197F908950E94B7150C946A1561
:102B50000E945C1538F00E94631520F0952311F057
:102B60000C9453150C94591511240C949E150E9425
:102B70007B1570F3959FC1F3950F50E0551F629F31
:102B8000F001729FBB27F00DB11D639FAA27F00DC6
:102B9000B11DAA1F649F6627B00DA11D661F829FED
:102BA0002227B00DA11D621F739FB00DA11D621FD2
:102BB000839FA00D611D221F749F3327A00D611DEF
:102BC000231F849F600D211D822F762F6A2F1124D1
:102BD0009F5750409AF0F1F088234AF0EE0FFF1F04
:102BE000BB1F661F771F881F91505040A9F79E3F5B
:102BF000510580F00C9453150C949E155F3FE4F33F
:102C0000983ED4F3869577956795B795F795E795B0
:102C10009F5FC1F7FE2B880F911D9695879597F9B9
:062C20000895F894FFCFB7
:00000001FF
